:020000040800F2
:1000000040070020850B000839040008710B000828
:10001000710B0008710B0008710B00080000000054
:10002000000000000000000000000000BD0C0008FF
:10003000710B000800000000590C0008BD240008E6
:10004000850F0008850F0008850F0008850F000840
:10005000850F0008850F0008850F0008850F000830
:10006000850F0008850F0008850F0008850F000820
:10007000850F0008850F0008850F0008850F000810
:10008000850F0008850F0008850F0008850F000800
:10009000850F0008850F0008850F0008850F0008F0
:1000A000850F0008850F0008850F0008850F0008E0
:1000B000850F0008850F0008850F0008850F0008D0
:1000C000850F0008850F0008850F0008850F0008C0
:1000D000850F0008850F0008850F0008850F0008B0
:1000E000850F0008850F0008850F0008850F0008A0
:1000F000850F0008850F0008850F0008850F000890
:10010000850F0008850F0008850F0008850F00087F
:10011000850F0008850F0008850F0008850F00086F
:10012000850F0008850F0008850F0008850F00085F
:10013000850F0008850F0008850F0008850F00084F
:10014000850F0008850F0008850F0008850F00083F
:10015000850F0008850F0008850F0008850F00082F
:10016000850F0008850F0008850F0008850F00081F
:10017000850F0008850F0008850F0008850F00080F
:10018000850F0008850F0008850F0008850F0008FF
:04019000850F0008CF
:1001940090B585B000AF78600023FB6017E0104A8B
:1001A400FB6852F833000E4AFB68DB0013441979EC
:1001B4000C4C7A681346DB009B1AE218FB68134464
:1001C4001B781A4604F017FAFB680133FB60FB68DE
:1001D400062BE4DD00BF00BF1437BD4690BD00BF51
:1001E400048A00083C8A000880B586B000AF00236A
:1001F4007B6101233B610023FB6011E01C4AFB6827
:1002040052F833001A4AFB68DB0013441B794FF49D
:10021400D012194604F017FAB860FB680133FB608A
:10022400FB68062BEADD134B0D214FF48032184690
:1002340004F009FAB8600F4B0D221146184604F079
:1002440092F978603B69002B0CD17B68012B09D1B2
:100254007B6901335A4203F00F0302F00F0258BFC7
:1002640053427B617B683B617869FFF791FFE2E76A
:10027400048A0008D885000880B483B000AF786091
:10028400034A7B68136000BF0C37BD4680BC7047CF
:100294000000002080B582B000AF78603960044B64
:1002A4001B6878689847034618460837BD4680BDE2
:1002B4000000002080B58CB000AF7860396004F095
:1002C40086FC0346002B1BD007F11C0300221A6096
:1002D4005A609A60DA601A610223BB77134B3B625F
:1002E40007F11C033A687968184603F03DFEFB6A7F
:1002F400002B17D007F11C03184604F086FC11E00C
:1003040007F10C0300221A605A609A60DA60022333
:10031400BB73074B3B6107F10C033A6879681846D5
:1003240003F022FE3037BD4680BD00BF374C0008C5
:100334009902000880B584B000AF7860396000236A
:10034400FB600AE0094B1B687968FA680A44127872
:1003540010469847FB680133FB60FA683B689A4291
:10036400F0D300BF00BF1037BD4680BD00000020A1
:1003740080B500AF08F0B6F80346024A9B58184609
:1003840080BD00BF0800000080B584B000AFF860F5
:10039400B9607A603B6004F07CFC024608F0A2F885
:1003A400034606495A50FB683A687968B868984722
:1003B400FFF7DEFF0346184604F072FC0800000055
:1003C40080B400AF044B5B68034A43F001035360FD
:1003D40000BFBD4680BC7047002004E080B500AF7C
:1003E400034B044A1A60FFF7EBFF0023184680BD55
:1003F4006400002000127A0080B400AF044B5B68F4
:10040400034A23F00203536000BFBD4680BC70471B
:10041400002004E080B483B000AF78607B68044AB5
:100424001A60002318460C37BD4680BC704700BFD5
:10043400AC8A000880B500AF034B1B68984700F0F6
:100444005FF800BF80BD00BF0400002030BFFFF78D
:10045400FDBF00BF80B483B000AF0F4A0F4B1344FD
:10046400013B0E4AB3FBF2F30C4A02FB03F37B603D
:100474000B4A0C4B1344013B0A4AB3FBF2F3094AFF
:1004840002FB03F33B607A683B68134418460C375D
:10049400BD4680BC704700BF0000000001000000A2
:1004A400040000000400000080B584B000AF786050
:1004B4000F4BFB600F4BBB60FA680F49786807F07D
:1004C400FBFF0E4B5A1EFB6813440C4AB3FBF2F3BA
:1004D4000A4A02FB03F37A6813447B60BA6800217A
:1004E400786807F0F7FF00BF1037BD4680BD00BF36
:1004F4000000000004000000F8880008010000006B
:10050400044B99685869884203D003494FF08052DC
:100514000A607047D802002004ED00E080B5ADF514
:10052400187D00AF07F51873A3F51573186007F568
:100534001873A3F51673196007F51873A3F51773E9
:100544001A601023C7F858326FF01503C7F85032F9
:1005540000BF524B9B6A03F01003002B03D01123FE
:10056400C7F8583200BF4D4B9B6A03F00803002BB9
:1005740003D01223C7F8583200BF484B9B6A03F0DC
:100584000203002B1FD01323C7F8583200BF434B7C
:100594005B6BC7F84C32414B9B6A03F08003002B22
:1005A40011D0D7F84C32C7F8503200BF07F5187392
:1005B400A3F516731B68002B05D0384B9B6A374A8A
:1005C40023F080039362354B9B6A03F00103002BF5
:1005D40003D01423C7F8583200BF304B9B6A03F092
:1005E4002003002B03D01523C7F8583200BF2B4B30
:1005F4009B6A03F01003002B05D1284B9B6A03F080
:100604000203002B21D0254B5B6803F40063002B0D
:100614001BD007F51873A3F515731B681946D7F893
:10062400500200F009FCC7F85402D7F85432002BEA
:100634000BD0D7F85432C7F85C32D7F85C3283F366
:10064400098800BF0223C7F85832144B9B6A03F091
:100654002003002B05D0114B5B6A104A23F400538E
:1006640053620E4B9B6A0D4A43F0FF03936207F5F6
:100674001873A3F515730121186804F086FB03466B
:100684001A4607F51873A3F517731B681A70D7F881
:100694005832184607F51877BD4680BD00ED00E0D6
:1006A40080B5ADF51E7D00AF07F51E73A3F51B7372
:1006B400186007F51E73A3F51C73196007F51E7304
:1006C400A3F51D731A601623C7F8743200BF384BA4
:1006D4009B6A03F48053002B03D01723C7F87432AA
:1006E40000BF334B9B6A03F40063002B03D0182331
:1006F400C7F8743200BF2E4B9B6A03F40073002BBF
:100704001BD01923C7F8743200BF294B9B6BC7F861
:100714007032274B9B6A03F40043002B0DD000BFBB
:1007240007F51E73A3F51C731B68002B05D0204B23
:100734009B6A1F4A23F4004393621D4B9B6A03F494
:100744008063002B03D01A23C7F8743200BF184B00
:100754009B6A03F48073002B03D01B23C7F8743205
:1007640009E0134B9B6A03F40053002B03D01C23B2
:10077400C7F8743200BF0E4B9B6A0D4A43F47F43A3
:10078400936207F51E73A3F51B730121186804F027
:10079400FCFA03461A4607F51E73A3F51D731B687E
:1007A4001A70D7F87432184607F51E77BD4680BD17
:1007B40000ED00E080B4ADF50B7D00AF07F50A73E2
:1007C400A3F5097318601D23C7F8243200BF264B14
:1007D4009B6A03F00073002B03D01E23C7F8243256
:1007E40000BF214B9B6A03F08073002B03D01F23AF
:1007F400C7F8243200BF1C4B9B6A03F40023002B70
:1008040003D02123C7F8243200BF174B9B6A03F49B
:100814008023002B03D02223C7F8243200BF124BBD
:100824009B6A03F40033002B03D02323C7F824323C
:1008340000BF0D4B9B6A03F48033002B03D02423A9
:10084400C7F8243200BF084B9B6A074A6FEA034388
:100854006FEA13439362D7F82432184607F50B77EF
:10086400BD4680BC704700BF00ED00E080B485B099
:1008740000AF78607B689B69FB601B4B5B691A4A1D
:1008840043F480735361BFF34F8F00BF00BF00BFB9
:10089400BFF36F8F00BF00BF00BFFB6833F8023C9B
:1008A4007B81114B5B69104A23F480735361BFF35E
:1008B4004F8F00BF00BF00BFBFF36F8F00BF00BFEB
:1008C40000BF7B8903F47F43B3F55F4F05D17B8978
:1008D400DBB2022B01D1012300E0002318461437B8
:1008E400BD4680BC704700BF00ED00E080B5FEB09F
:1008F40000AF07F5FC73A3F5FA73186007F5FC73F2
:10090400A3F5FC7319600023C7F8F43100BF07F5A1
:10091400FC73A3F5FC731B6800221A70344BDB6A6A
:1009240003F00203002B59D1314BDB6A002B57DB58
:100934002F4BDB6A03F08043002B52D000BF07F536
:10094400FC73A3F5FA731868FFF790FF0346002BB6
:1009540009D000BF07F5FC73A3F5FA731B681B6885
:10096400C7F8F4313DE0224B9B6ADBB2002B0FD079
:1009740007F5FC73A3F5FC7207F5FC73A3F5FA7392
:10098400126801211868FFF7C9FDC7F8F40128E0CF
:10099400174B9B6A03F47F43002B10D007F5FC73BD
:1009A400A3F5FC7207F5FC73A3F5FA731268012131
:1009B4001868FFF775FE0346C7F8F43111E00C4BD5
:1009C4009B6AB3F5803F0CD307F5FC73A3F5FA7368
:1009D4001868FFF7EFFEC7F8F40102E000BF00E07B
:1009E40000BFD7F8F431184607F5FC77BD4680BD43
:1009F40000ED00E080B586B000AFF860B9607A60C1
:100A040000237B617B6800221A70BB68033B092BBF
:100A140035D801A252F823F0450A0008510A00080B
:100A24005F0A00086F0A0008830A0008830A0008A6
:100A3400830A0008830A0008830A0008790A000868
:100A44007968F868FFF752FF78611DE07A68002141
:100A5400F868FFF763FD786116E07A680021F868AA
:100A6400FFF71EFE03467B610EE0F868FFF7A2FE67
:100A7400786109E07968F86804F093F904E0B968EA
:100A8400F86804F0A9F900BF7B681B7883F00103C0
:100A9400DBB2002B03D0B968F86804F06CF97B6909
:100AA40018461837BD4680BD80B592B000AFF860D7
:100AB400B9607A603B6000237B64244B5B68C3F3BA
:100AC40008033B640023BB63BB6B83F31188BFF350
:100AD4006F8F00BF07F136037A68B968F86804F0CD
:100AE4008FF9F86307F137031A46396CF86BFFF78F
:100AF40081FF786497F83730002B23D107F1140372
:100B04002022F96B184607F0D7FC97F83630002BF3
:100B14000BD03B6BC3F30803002B0CD13B6B6FEA88
:100B240053236FEA43233B6305E03B6B23F4FF73DA
:100B340023F001033B6307F114031946786C04F0B6
:100B4400DAF800E000BF4837BD4680BD00ED00E0A4
:100B540080B400AF044B5B69034A43F01003536154
:100B640000BFBD4680BC704700ED00E0EFF3088095
:100B7400EFF3098101B57246FFF796FF01BD00BF8F
:100B8400102080F3118808484FF40461401880F362
:100B94000988EFF314800221084380F31488BFF31B
:100BA4006F8F04F0CCF900000009002080B584B0F8
:100BB40000AF7860114B9B687A689A4216D1EFF3C4
:100BC4000583FB60FB68002B14BF01230023DBB209
:100BD400002B0BD00A4B5B68094A43F080535360E7
:100BE400074B5B6A064A23F400435362786802F0B9
:100BF40011FF00BF1037BD4680BD00BFD8020020E2
:100C040000ED00E080B485B000AF78600F4B9B68C6
:100C14007A685A670D4B9B686FF00A029A670C4B0F
:100C24005B680B4A43F0805353600023FB60FB680E
:100C340083F31188BFF36F8F00BF044B9B689B6FD6
:100C440018461437BD4680BC704700BFD802002048
:100C540000ED00E015498A684FF030001044EFF3CE
:100C6400098C80E8F01F102080F31288BFF36F8F87
:100C74000F4F4FF000664A698A603E604FF070047F
:100C8400141920680B4C2060506F0023536780F3C5
:100C9400118804B5104600F097F9BDE8044002F14C
:100CA400300090E8F01F8CF309887047D8020020C8
:100CB40004ED00E0D00100201EF0040F0CBFEFF3A0
:100CC4000880EFF30980816911F8021C0229FFD022
:100CD40001B504F023F801BD80B483B000AF03462E
:100CE400FB7197F90730002B0BDBFB7903F01F0234
:100CF400064997F907305B09012000FA02F241F82E
:100D0400232000BF0C37BD4680BC704700E100E0E3
:100D140080B483B000AF03463960FB7197F90730A4
:100D2400002B0ADB3B68DAB20C4997F90730120151
:100D3400D2B20B4483F800230AE03B68DAB20849D4
:100D4400FB7903F00F03043B1201D2B20B441A7671
:100D540000BF0C37BD4680BC704700BF00E100E017
:100D640000ED00E080B400AF094B0A4A23F07F0392
:100D74009360BFF34F8F00BF00BF00BFBFF36F8FFF
:100D840000BF00BF00BF00BFBD4680BC704700BFAE
:100D94000000000800ED00E080B483B000AF0D4B0C
:100DA400D3F888300B4A23F47003C2F88830EFF389
:100DB40014833B603B6823F004037B607B6883F30C
:100DC4001488BFF36F8F00BF00BF00BF0C37BD4650
:100DD40080BC704700ED00E080B487B000AFF860DD
:100DE400B9607A603B607B68203B7B61114A7B6918
:100DF4009A617B699B6923F001027B699A613A6875
:100E04007B691A603A6A7B695A607A6A7B699A607C
:100E1400BA6A7B69DA607B694FF08072DA617A6959
:100E2400FB681A65FB6800225A6700BF1C37BD4681
:100E340080BC70478D03000880B485B000AF786033
:100E440039601C4B9B68FB60FB68002B01D10023BD
:100E54002BE04023BB607B6813F1160F17D0FB68AF
:100E64001A6EBB68D31A7A689A420BD3FB681B6E5E
:100E74007A689A4206D2FB681B6E3A689A4201D29B
:100E8400012300E0002303F00103DBB207E0FB6869
:100E94001B6E3A689A4234BF01230023DBB2002B55
:100EA40002D0FB681B6E00E0002318461437BD46D1
:100EB40080BC7047D802002080B584B000AFF860D1
:100EC400B9607A6004F049F80C4AFB689360FB68E7
:100ED4001B6F0B4A1360F86800F076F87B68BA68F9
:100EE400184682F30988002163B681F31188BFF3A1
:100EF4006F8F00220023FFF747FA00BFD8020020BB
:100F0400D0010020014910220A60704710ED00E072
:100F140072B6404080F31188BFF36F8FBFF34F8FD9
:100F240030BF62B6BFF36F8F704700BF80B483B029
:100F340000AF03463960FB7197F90730002B0ADBD9
:100F44003B68DAB20C4997F907301201D2B20B446C
:100F540083F800230AE03B68DAB20849FB7903F01E
:100F64000F03043B1201D2B20B441A7600BF0C37B4
:100F7400BD4680BC704700BF00E100E000ED00E02A
:100F840001B5EFF30580A0F110004FEAC000044959
:100F9400014409C99847BDE80140024908470000D7
:100FA400508600080505000880B500AF034A044BCD
:100FB4000121044804F0A2FA00BF80BD0000002013
:100FC40000000120AC8A000880B586B000AF7860CC
:100FD4000023FB7540233B617B681A6E3B69D31A7F
:100FE400FB60FA7D134913465B0013449B000B44DA
:100FF400FA681A60FA7D0F4913465B0013449B009C
:101004000B4404333A691A60FA7D0A4913465B00BB
:1010140013449B000B440833074A1A60FB7D0133D9
:10102400FB75FB7D1946034804F07AFA00BF1837B4
:10103400BD4680BDD401002000000B1580B483B0F0
:1010440000AF7860054A7B689360044B00221A6104
:1010540000BF0C37BD4680BC704700BF90ED00E078
:1010640080B483B000AF074B1B687B607B681B0AAE
:10107400DBB27B607B68DBB218460C37BD4680BCB4
:10108400704700BF90ED00E080B483B000AF78609B
:10109400034A7B68936000BF0C37BD4680BC704731
:1010A40090ED00E080B5E4B000AF07F5C873A3F598
:1010B400C673186007F5C873A3F5C873196007F5FC
:1010C400C873A3F5C6731868FFF7DEFF07F5C87386
:1010D400A3F5C8731B681B6823F01F0207F5C873C8
:1010E400A3F5C6731B681343094A43F01003D36086
:1010F40007F5C873A3F5C8731B689B68044A43F0DB
:101104000103136100BF00BF07F5C877BD4680BD6A
:1011140090ED00E080B586B000AFF8607A603B6087
:101124000B46FB72094B1B787B617B69DAB2F97A57
:101134000123F86804F053F978617B69DAB2034B50
:101144001A707B6918461837BD4680BD100300200D
:1011540080B584B000AF78600B46FB70124B1B78EF
:10116400BB60BB68DAB2F9780023786804F037F919
:10117400B860BB6813F1160F10D0BB68FB6006E0C3
:10118400FB681846FFF75AFFFB680133FB60FFF763
:1011940067FF03461A46FB689342F1DBBB681846B7
:1011A4001037BD4680BD00BF1003002080B400AFDF
:1011B400084B05225A60BFF34F8F00BF00BF00BF2A
:1011C400BFF36F8F00BF00BF00BF00BFBD4680BC30
:1011D400704700BF90ED00E080B400AFBFF35F8FB5
:1011E40000BF00BF00BF034B00225A6000BFBD46D2
:1011F40080BC704790ED00E090B5D5B000AF2D4BAA
:101204001C68FFF72DFF03469C4202D94FF0FF33C1
:101214004AE000BFFFF7E0FF03F0BCFE0023C7F87D
:101224004C3112E0234B5968D7F84C2113465B002C
:1012340013449B000B441946D7F84C01FFF732FFC7
:10124400D7F84C310133C7F84C311A4B1B68D7F827
:101254004C219A42E6D3174B1B68DAB2164B1A702C
:10126400154803F031FF034613F1160F02D16FF056
:10127400150319E0104B1B78C7F8483109E0D7F87B
:101284004831184603F0E0FED7F848310133C7F877
:101294004831FFF7E5FE03461A46D7F84831934232
:1012A400EDDBFFF783FF0023184607F5AA77BD4659
:1012B40090BD00BFD08A00081003002080B582B022
:1012C40000AF78603960044B1B6878689847002346
:1012D40018460837BD4680BDE001002080B483B0C5
:1012E40000AF7860074A7B681360074B9B7843F034
:1012F4000203DAB2044B9A7000BF0C37BD4680BCBF
:10130400704700BFE00100200800002080B582B0D3
:1013140000AF00237B600C4B073323F007037B6093
:10132400094B073323F00703C3F1005303F580335C
:101334003B603A687968054803F0CDFB0023184602
:101344000837BD4680BD00BF40110020E4010020E5
:1013540080B483B000AF7860054B1A6804497B6899
:1013640013430B6000BF0C37BD4680BC704700BF01
:101374000004014080B483B000AF7860054B1A6864
:101384007B68DB43034913400B6000BF0C37BD4649
:1013940080BC70470004014080B483B000AF786023
:1013A400054B9A6804497B6813438B6000BF0C3774
:1013B400BD4680BC704700BF0004014080B483B0C8
:1013C40000AF7860054B9A687B68DB4303491340A0
:1013D4008B6000BF0C37BD4680BC704700040140E1
:1013E40080B483B000AF7860054BDA6804497B6849
:1013F4001343CB6000BF0C37BD4680BC704700BFB1
:101404000004014080B483B000AF7860054BDA6813
:101414007B68DB4303491340CB6000BF0C37BD46F8
:1014240080BC70470004014080B483B000AF786092
:10143400074B5A697B6813407A689A420CBF0123B0
:101444000023DBB218460C37BD4680BC704700BF92
:101454000004014080B483B000AF7860034A7B6825
:10146400536100BF0C37BD4680BC70470004014087
:1014740080B584B000AF78600023FB600A4A7B68C3
:10148400134493F90030FB607B68012202FA03F3F2
:101494001846FFF75DFFFB68184603F024FD00BF04
:1014A4001037BD4680BD00BF1800002080B582B053
:1014B40000AF786039604FF48011002004F05DF8CB
:1014C4003B68032B46D801A252F823F0E11400082C
:1014D400FF1400081D1500083B1500087B68012255
:1014E40002FA03F31846FFF769FF7B68012202FA48
:1014F40003F31846FFF786FF2DE07B68012202FA0A
:1015040003F31846FFF748FF7B68012202FA03F34E
:101514001846FFF777FF1EE07B68012202FA03F307
:101524001846FFF75DFF7B68012202FA03F31846B1
:10153400FFF744FF0FE07B68012202FA03F3184629
:10154400FFF72AFF7B68012202FA03F31846FFF72C
:1015540047FF00E000BF002004F019F800BF08377F
:10156400BD4680BD80B588B000AF78601C4BBB61C0
:10157400BB691B697B617B683B610023FB7725E0CA
:101584003B691B781A46FB7F1344FB60F86804F040
:1015940019F80346002B16D0F86804F028F87B6984
:1015A400FA6853F83230002B0CD07B69FA6853F890
:1015B40032207969FB68DB000B445B681946F868E4
:1015C400904700E000BFFB7F0133FB773B695B780A
:1015D400FA7F9A42D4D900BF00BF2037BD4680BDF0
:1015E4009C85000880B485B000AF03463A60FB7167
:1015F4000B46BB710023FB600AE097F90720FB68E8
:1016040013443A6851B2084AD154FB680133FB6071
:1016140097F90630FA689A42EFDB00BF00BF14372F
:10162400BD4680BC704700BF1800002080B582B062
:1016340000AF7860364B1B785BB2354A527851B2B2
:1016440006221846FFF7CEFF00220021062003F0F1
:1016540057FC304B1B785BB22E4A527851B20722AA
:101664001846FFF7BFFF00220021072003F048FCC3
:10167400294B1B785BB2284A527851B2082218468B
:10168400FFF7B0FF00220021082003F039FC234BB0
:101694001B785BB2214A527851B209221846FFF7EF
:1016A400A1FF00220021092003F02AFC1C4B1B7817
:1016B4005BB21B4A527851B20A221846FFF792FFD6
:1016C400002200210A2003F01BFC164B1B785BB29E
:1016D400144A527851B217221846FFF783FF0022AA
:1016E4000021172003F00CFC0F4B1B785BB20E4A51
:1016F400527851B228221846FFF774FF00220021C5
:10170400282003F0FDFB002318460837BD4680BDA2
:10171400D88A0008DC8A0008E08A0008E48A000805
:10172400E88A0008EC8A0008F08A000880B487B0D0
:1017340000AFF860B9607A60174B7B617B691B6905
:101744003B613B69FA6853F83230BA689A4209D16E
:101754003A69FB68DB0013445B687A689A4201D1FA
:10176400002314E03B69FA6853F83230002B02D0AE
:101774006FF00F030BE03B69FA68B96843F8321065
:101784003A69FB68DB0013447A685A600023184600
:101794001C37BD4680BC70479C85000880B485B06A
:1017A40000AF78600A4BFB60FB681B69BB60BB68D9
:1017B4007A68002143F83210BA687B68DB0013446E
:1017C40000225A6000BF1437BD4680BC704700BF7A
:1017D4009C85000880B400AF044B1B68034A43F4A3
:1017E4008023136000BFBD4680BC704700100240D8
:1017F40080B400AF044B1B68034A43F48033136086
:1018040000BFBD4680BC70470010024080B400AFEA
:10181400064B1B6803F40033B3F5003F0CBF0123F0
:101824000023DBB21846BD4680BC7047001002405E
:1018340080B400AF044B1B68034A43F001031360F8
:1018440000BFBD4680BC70470010024080B400AFAA
:10185400064B1B6803F00203022B0CBF0123002379
:10186400DBB21846BD4680BC704700BF0010024082
:1018740080B400AF044B5B6A034A43F00103536234
:1018840000BFBD4680BC70470010024080B400AF6A
:10189400064B5B6A03F00203022B0CBF01230023F7
:1018A400DBB21846BD4680BC704700BF0010024042
:1018B40080B483B000AF7860064B5B6823F003020A
:1018C40004497B6813434B6000BF0C37BD4680BCA2
:1018D400704700BF0010024080B400AF034B5B6848
:1018E40003F00C031846BD4680BC7047001002404C
:1018F40080B483B000AF7860064B5B6823F0F002DD
:1019040004497B6813434B6000BF0C37BD4680BC61
:10191400704700BF0010024080B483B000AF78600D
:10192400064B5B6823F4E06204497B6813434B6015
:1019340000BF0C37BD4680BC704700BF001002409A
:1019440080B483B000AF7860064B5B6823F46052C8
:1019540004497B6813434B6000BF0C37BD4680BC11
:10196400704700BF0010024080B400AF034B5B68B7
:1019740003F0F0031846BD4680BC704700100240D7
:1019840080B400AF044B1B68034A43F080731360B8
:1019940000BFBD4680BC70470010024080B400AF59
:1019A400044B1B68034A23F08073136000BFBD46D9
:1019B40080BC70470010024080B400AF064B1B6827
:1019C40003F00073B3F1007F0CBF01230023DBB2EB
:1019D4001846BD4680BC70470010024080B485B0F4
:1019E40000AF78600023FB607B68013B052B17D8B0
:1019F40001A252F823F000BF2B1A00081D1A000898
:101A04002B1A0008151A00082B1A00082B1A0008B4
:101A14006FF08503FB6007E06FF08503FB6003E074
:101A24006FF0850301E000BFFB6818461437BD461C
:101A340080BC704780B588B000AFF860B9607A6048
:101A4400BB68FB61434B1B68BB610221B86903F0AF
:101A5400E6FD78610121B86903F0E1FD3861FB69B5
:101A64001B68052B02D16FF085036FE0FB691B68CF
:101A7400013B1B2B66D801A252F823F0091B000876
:101A84002F1B0008371B0008411B0008491B0008D6
:101A9400131B0008491B0008491B0008491B0008C8
:101AA400491B0008491B0008491B0008491B000882
:101AB400491B0008491B0008491B0008491B000872
:101AC400491B0008491B0008F11A0008491B0008BB
:101AD400491B0008491B0008011B0008491B00089A
:101AE400491B0008491B0008F91A00087B68BA69F9
:101AF4001A602AE07B687A691A6026E07B683A6992
:101B04001A6022E0134B1A687B681A601DE000F02B
:101B1400ABF80346002B02D16FF0040316E000F08B
:101B2400A3F802467B681A600FE07B6800221A6003
:101B34000BE07B6849F640421A6006E07B680022AD
:101B44001A6002E06FF0850300E000231846203796
:101B5400BD4680BD6400002090B585B000AF7860BC
:101B640003F0BFFE00F064FE0446FFF7FDFE0346EB
:101B74001B0903F00F031D4AD35C24FA03F3FB6033
:101B84001A4B1B781A461A4B1341BB60FA68BB68A0
:101B94009A4202D2B86800F0E3FE03F077FE03F045
:101BA4005AFE0020FFF7A4FE0220FFF781FE00BFCB
:101BB400FFF792FE0346082BFAD1FA68BB689A42F3
:101BC40002D3B86800F0CCFE0A4B094A1A604FF4FD
:101BD4008060FFF7A1FE0020FFF7B2FE03F019FDBD
:101BE400002318461437BD4690BD00BF7C8C000806
:101BF40000A24A046400002080B485B000AF78607D
:101C0400084BDA6907497B681343CB61054BDA69F2
:101C14007B681340FB60FB6800BF1437BD4680BC83
:101C2400704700BF0010024080B485B000AFF86078
:101C3400B9607A600B4B5B6823F47612F968BB6871
:101C44000B43084913434B60064BDB6A23F00F0236
:101C540004497B681343CB6200BF1437BD4680BC84
:101C6400704700BF0010024080B487B000AF4FF44B
:101C7400E0137B6100233B61134BFB603B6903F082
:101C84000F030133FA68B2FBF3F37A6902F47012BA
:101C94004FF470117960796891FAA1F1396039686B
:101CA400B960B968002901D1202103E0B968B1FA0B
:101CB40081F1C9B2CA40023202FB03F318461C3751
:101CC400BD4680BC704700BF00127A0080B582B068
:101CD40000AF7860124B184603F045FE0346002B14
:101CE40001DA796817E07B680A2B04D10C4B0D21CB
:101CF400184603F029FE0A4A7B68DBB219461046EF
:101D040003F022FE06494FF00A024FF00003084692
:101D140003F033FE79680B4618460837BD4680BD8C
:101D24003C86000880B500AF0348FFF7D7FA0248A5
:101D3400FEF7A2FA00BF80BDD11C000880B500AF39
:101D4400084B184603F0E1FD034683F00103DBB2C0
:101D5400002B02D06FF0120302E0FFF7E3FF002331
:101D6400184680BD3C86000880B487B000AF786018
:101D74003960174A3B6803F00303023352F8232007
:101D84003B681B0CDB4302EA03013B681B0C3B6111
:101D94003B6993FAA3F3FB60FB687B617B69002BCF
:101DA40001D1202303E07B69B3FA83F3DBB21A4643
:101DB4007B6803FA02F206483B6803F003030A4314
:101DC400023340F8232000BF1C37BD4680BC704757
:101DD4000000014080B487B000AF7860104A7B688F
:101DE40003F00303023352F823207B681B0C1340D7
:101DF4007A68120C3A613A6992FAA2F2FA60FA68C5
:101E04007A617A69002A01D1202203E07A69B2FA60
:101E140082F2D2B2D34018461C37BD4680BC70470C
:101E24000000014080B586B000AF78600B46FB70BF
:101E34007B685B683B6100237B610F4BFB60FB7835
:101E4400002B07D03B690C331946F86804F026F8D8
:101E5400786106E03B690C331946F86804F030F801
:101E640078617B69002B01D07B6900E07B691846AF
:101E74001837BD4680BD00BF7485000880B586B0A4
:101E840000AF786039600F4B7B610F4A07F108039C
:101E940092E8030083E8030007F108031946786910
:101EA40003F0FCFF38613B69002B01D03B6904E07F
:101EB4003968786804F0DFF9002318461837BD46FE
:101EC40080BD00BF748500083889000880B588B0DB
:101ED40000AFF8607A603B600B46FB72FB685B689E
:101EE4007B61FB681B693B610023FB610023BB61D1
:101EF4007B68B3F5001F16D1FB7A184604F0D5F9B8
:101F040002467B699B689A424DD1FB7A184603F0DE
:101F140047FBFB7A1846FFF741FCFB7A0021184681
:101F2400FFF7C4FA3FE07B68B3F5800F03D16FF08D
:101F34008503BB6138E0FB7A3A691E491846FFF70E
:101F4400F5FB0346002B03D06FF00F03BB612BE0BE
:101F54007B699B68FA7A11461846FFF78FFF3B6846
:101F6400B3F1C06F12D03B68B3F1C06F11D83B68B6
:101F7400B3F1007F04D03B68B3F1806F03D008E075
:101F84000223FB6105E00123FB6102E00323FB6103
:101F940000BFFB7AF9691846FFF788FAFB7A1846FE
:101FA400FFF766FA00E000BFBB6918462037BD465C
:101FB40080BD00BF6960000880B584B000AF786060
:101FC4007B681B69FB60FB687A685A600E4803F003
:101FD400E4FD034683F00103DBB2002B02D06FF073
:101FE40012030DE001217868FFF71CFFB860BB689D
:101FF400002B01DABB6803E0786803F073FF002369
:1020040018461037BD4680BD7485000880B586B07B
:1020140000AFF860B9607A60FB681B090B22934239
:1020240002D36FF015031DE0FB681B090F4A52F839
:1020340023307B617B69002B08D0786904F0BAFAFD
:10204400034683F00103DBB2002B02D06FF01203CE
:1020540008E0FB6803F00F01BA687B68786904F054
:10206400BBF9034618461837BD4680BD908B00085F
:1020740080B588B000AF786039607B685B68FB61CD
:102084007B681B69BB61BB695B687B613B681B79CF
:10209400184605F00AF838613B685B791946F86917
:1020A40005F030F8F8603B689A793B681B7919466B
:1020B400104605F065F8B8603B681B79032B03D024
:1020C4003B681B79042B02D16FF0850365E03B6804
:1020D4001B79002B06D03B689B79042B02D16FF04F
:1020E40085035AE0F86805F02CF803461A463B6865
:1020F4005B799A4202D06FF085034EE03969B86883
:1021040005F063F803461A463B689B799A4202D06D
:102114006FF0850341E03B68DB79002B28D03B68F6
:10212400DB79012B0ED1FB691B681E4A93421FD039
:10213400FB691B681C4A93421AD0FB691B681B4A43
:10214400934215D03B68DB79032B0ED1FB691B68E6
:10215400144A93420CD0FB691B68134A934207D07C
:10216400FB691B68114A934202D06FF0850314E0A7
:10217400FB691B68184604F0D4FB3968786805F0DD
:1021840070F8FB691B68184604F0BCFB7B693A686D
:1021940092E8030083E80300002318462037BD4675
:1021A40080BD00BF003801400044004000480040AA
:1021B40080B582B000AF78603960054A39687868C4
:1021C40005F031F9034618460837BD4680BD00BF07
:1021D400FD74000880B582B000AF78600B46FB70D8
:1021E400FB1C044A1946786805F047F900BF083714
:1021F400BD4680BD2175000880B485B000AF78600D
:102204007B681B69FB60054BBB60FB68BA681A609E
:1022140000BF1437BD4680BC704700BF74850008FA
:1022240080B5E2B000AF07F5C473A3F5C2731860BC
:1022340007F5C473A3F5C2731B685B68C7F88031E4
:1022440007F5C473A3F5C2731B681B69C7F87C3117
:10225400D7F87C315B68C7F88431D7F880311B68C4
:10226400184604F05EFBD7F880315B68184604F02A
:10227400A7FA034683F00103DBB2002B03D000BFAF
:102284006FF01203A6E0D7F880310433184604F047
:102294001AFBD7F880311B680C21184604F050FB58
:1022A40007F5C473A3F5C273D7F88411186804F052
:1022B400D8FFD7F880311B7D002B05D0D7F88031AB
:1022C4001B68184604F079FCD7F880315B7D002B3D
:1022D40007D0D7F880311B684FF40041184604F04A
:1022E400E1FBD7F880319B7D002B07D0D7F88031F4
:1022F4001B684FF48031184604F0E6FBD7F88031B0
:10230400DB7D002B07D0D7F880311B684FF40031F8
:10231400184604F0EBFBD7F880311B7E002B3ED02F
:10232400D7F880311B682E4A93420FD0D7F88031FA
:102334001B682C4A934209D0D7F880311B682A4A7B
:10234400934203D000BF6FF0150343E007F5C47355
:10235400A3F5C2730121186804F076FED7F8803122
:102364001A68D7F880315B7E1946104604F047FCA2
:10237400D7F880311A68D7F880319B7E1946104609
:1023840004F02AFCD7F88031DB7E002B07D0D7F885
:1023940080311B684FF40041184604F074FCD7F8F0
:1023A40080311B68184604F0ADFA00BFD7F88031BD
:1023B4001B68184604F0F8FC0346002BF6D000BF57
:1023C400D7F880311B68184604F001FD0346002B42
:1023D400F6D00023184607F5C477BD4680BD00BF7C
:1023E40000380140004400400048004080B483B0FD
:1023F40000AF03463960FB7197F90730002B0ADB05
:102404003B68DAB20C4997F907301201D2B20B4497
:1024140083F800230AE03B68DAB20849FB7903F049
:102424000F03043B1201D2B20B441A7600BF0C37DF
:10243400BD4680BC704700BF00E100E000ED00E055
:1024440080B485B000AF194B9B68FB60174B1B68C9
:102454007B60164B9B68BB60FB68002B02D1144B5E
:102464001B68FB60BB68002B02D1114B1B68BB606F
:102474007B6803F48033002B03D1FA68BB689A426B
:1024840008D20C4B1A680A4B1B681344094A1360A0
:10249400064B1B68064B1A68BB68D21A054B1B68AF
:1024A400134418461437BD4680BC704710E000E062
:1024B400D0020020D40200202DE9B04F86B000AF36
:1024C400F860FFF7BDFF214B1B6800229846914638
:1024D4001F4BD3E9002318EB0201396049EB0303D6
:1024E4007B601B4BD7E90012C3E90012174B002293
:1024F4001A60174BD3E900231146164BD3E9002386
:102504001346CB1A7B617B69134AA2FB03231B0B83
:102514003B613B694FF4E15202FB03F300221C468A
:1025240015460C4BD3E9002314EB020A45EB030BCD
:10253400084BC3E900AB3B69184601F03BFCFDF7CF
:10254400DFFF00BF1837BD46BDE8B08FD4020020BE
:10255400A0000020A8000020C5B3A2912DE9B04F2F
:1025640098B000AFF8610B46FB76FB7E002B0ED0D3
:10257400FB69B3F1FF3F0AD16E4B1B686D4A23F030
:10258400010313606C4B4FF07F421A60CEE06A4B3C
:102594001B68FB65FB69B3F1FF3F01D0FB6901E0F8
:1025A40040F61913FB61FB69012B07DDFB6940F65B
:1025B4001A129342A8BF1346013B00E00023FB61BB
:1025C4005E4B7B644FF01003EFF3118283F31288A8
:1025D400BFF36F8F3A64FB633B6C3B627B6CBB6302
:1025E40000BF7B6C7B6300BF3B6ABB62FFF728FFC5
:1025F400B865504B9B687B65BB6D00229A46934639
:102604004F4BD3E900231AEB020139614BEB03036F
:102614007B614B4BD7E90412C3E90012494B0022FA
:102624001A60474BD3E900231146474BD3E90023F3
:102634001346CB1A3B653B6D002B04DA3E4B4FF43B
:1026440080621A602CE0FB694FF4E15202FB03F351
:10265400FB64FA6C3B6D1344FB64FB6C03F5E053C1
:102664001F333A4AA2FB03231B0B4FF4E15202FB34
:1026740003F3FB64FA6C3B6DD31AFB64FB6CB3F598
:10268400806F38BF4FF48063FB64FB6C304A934225
:1026940003D9294B2E4A1A6002E0274AFB6C1360C7
:1026A400244B9B68BB64244B1B68224A013B536048
:1026B400204B00229A607A6DBB6C9A4216D2FA6D56
:1026C400BB6CD21A7B6D13440022984691461C4B76
:1026D400D3E9002318EB0201B96049EB0303FB6063
:1026E400174BD7E90212C3E9001212E07A6DBB6CF2
:1026F400D31A00221C461546114BD3E90023A11816
:10270400396045EB03037B600D4BD7E90012C3E945
:1027140000120A4B3B63BB6A7B627B6AFB62FB6A07
:1027240083F31188BFF36F8F00BF00BF6037BD46CE
:10273400BDE8B08F10E000E0D0020020D0020020FD
:10274400A0000020D4020020A8000020C5B3A2915C
:1027540020DFFF0080B58CB000AF1E4BFB614FF053
:102764001003EFF3118283F31288BFF36F8FBA6102
:102774007B61BB697B60FB693B6100BFFB69FB60FC
:1027840000BF7B68BB60144BD3E900231146134B95
:10279400D3E900231346CB1AFB62FFF751FE02462E
:1027A400FB6A1344BB620B4B7B62BB683B603B68B8
:1027B4003B623B6A83F31188BFF36F8F00BF00BF96
:1027C400BB6A074AA2FB03231B0B18463037BD46DE
:1027D40080BD00BFD0020020A0000020A80000207F
:1027E400C5B3A29180B500AF01214FF0FF30FFF7D0
:1027F400FDFD0C4B4FF4E1521A600B4B00221A60A2
:10280400084B1B68094A013B5360084B00229A603D
:10281400064B1B68054A43F0070313600023184660
:1028240080BD00BFD0020020D402002010E000E0F0
:1028340080B48DB000AF00237B6200233B62002391
:10284400FB620023FB610023BB62314B5B687B624C
:102854007B6A03F00C03042B02D0082B03D04DE059
:102864002C4BBB624DE07B6A03F470134FF470127F
:10287400BA60BA6892FAA2F27A607A68FA60FA6880
:10288400002A01D1202203E0FA68B2FA82F2D2B21D
:10289400D340214AD35CFB611D4BDB6A03F00F0379
:1028A4000F227A617A6992FAA2F23A613A69BA61BC
:1028B400BA69002A01D1202203E0BA69B2FA82F28D
:1028C400D2B2D340154AD35C3B627B6A03F48033B3
:1028D400002B08D00F4A3B6AB2FBF3F2FB6902FB00
:1028E40003F3FB6207E00B4A3B6AB2FBF3F2FB69BA
:1028F40002FB03F3FB62FB6ABB6202E0054BBB62B3
:1029040000BFBB6A18463437BD4680BC704700BF61
:102914000010024000127A008C8C00089C8C000885
:1029240080B483B000AF7860064B1B6823F00702C5
:1029340004497B6813430B6000BF0C37BD4680BC61
:10294400704700BF0020024080B400AF034B1B68F7
:1029540003F007031846BD4680BC704700200240C0
:1029640080B586B000AF78600023FB737B68002BD2
:1029740002D10123FB732AE07B68174A934202D9F0
:1029840002233B6108E07B68144A934202D9012385
:102994003B6101E000233B61FB7B012B17D03869CD
:1029A400FFF7BEFF02237B61FFF7CEFFB8607B69B0
:1029B400013B7B61BA683B699A4202D07B69002B78
:1029C400F2D1BA683B699A4201D00123FB73FB7BC5
:1029D40018461837BD4680BD006CDC0200366E0117
:1029E40080B582B000AF0B4B7B6005E0786804F0E3
:1029F40095FE7B6814337B607B68074A934234BF3F
:102A040001230023DBB2002BF0D100BF00BF083745
:102A1400BD4680BD748500085086000880B5ADF5BC
:102A2400107D00AF07F51073A3F50F73186007F559
:102A34001073A3F5107319604FF01003EFF31182B4
:102A440083F31288BFF36F8FC7F82C22C7F8343290
:102A5400D7F82C32C7F82832304B9B68C7F8243299
:102A640000BF07F51073A3F510731B68002B13D078
:102A740007F51073A3F510731B68C7F83032D7F845
:102A84003032DB69C3F30803002B14BF0123002396
:102A9400DBB2002B00D000BF00BF07F51073A3F515
:102AA400107107F51073A3F50F73D7F82422096882
:102AB400186804F068FE07F51073A3F5107207F5A3
:102AC4001073A3F50F731168186804F077FE07F507
:102AD4001073A3F510731B68002B0CD007F510734B
:102AE400A3F510731B68C7F83C32D7F83C32DB6996
:102AF400C3F30803002BD7F82832C7F83832D7F8C5
:102B0400383283F31188BFF36F8F00BFD7F82402E4
:102B140004F02EFE07F51077BD4680BDD8020020D4
:102B240080B483B000AF03463960FB7197F9073076
:102B3400002B0ADB3B68DAB20C4997F90730120123
:102B4400D2B20B4483F800230AE03B68DAB20849A6
:102B5400FB7903F00F03043B1201D2B20B441A7643
:102B640000BF0C37BD4680BC704700BF00E100E0E9
:102B740000ED00E080B483B000AF78607B68012290
:102B84005A737B6801221A737B6800221A667B6879
:102B940000225A667B680022DA66044A7B689360E6
:102BA40000BF0C37BD4680BC704700BFD802002070
:102BB40080B500AF044A054BD31A1A4600210348D6
:102BC40004F062FE80BD00BF14030020A0000020BA
:102BD40080B586B000AF0346FB71FB79244A52F8F6
:102BE40023307B6136E07B695B68FB60FB68002B0C
:102BF4002AD000233B617B691B68002B17D07B69BB
:102C04001B68F868984738613B69002B0FD03B6913
:102C1400002B02DA3B695B423B613B69FF2B01DD20
:102C2400FF233B61FB68DB683A69D2B21A70FB6828
:102C3400DA68537843F0010353703B69002B06D1E3
:102C4400F86804F017FE02E07B691B6898477B690B
:102C540008337B61FB790133054A52F823307A69E2
:102C64009A42C0D300BF00BF1837BD4680BD00BF25
:102C74006800002080B584B000AFF860B9607A6065
:102C84000C4B01221A700320FFF7A2FF01F062F936
:102C94000420FFF79DFF00F093F9FDF7A5FA064B1A
:102CA4001B7B23F00103DAB2034B1A7300BF103706
:102CB400BD4680BD11030020B000002080B58CB05B
:102CC40006AF78607B68DB01164A13447B617A683F
:102CD40013465B001344DB01134A13443B61002396
:102CE400FB607A6813469B0013449B000F4A13440D
:102CF400FA680592012204920F22039200220292A2
:102D04000022019200930A4B4FF4A072396978694A
:102D140000F01AF9786904F097FD00BF1837BD4632
:102D240080BD00BF3001002080070020D8020020B1
:102D3400B181000880B582B000AF78607868FFF791
:102D4400BDFF7B68DB011A4A99181A487A68134652
:102D54009B0013449B0003440C3319607B68D8B276
:102D640014497A6813469B0013449B000B441033A8
:102D740002461A707A6813465B0113449B010E4A9B
:102D84001344184604F055FD034603F50061094851
:102D94007A6813469B0013449B0003440433196070
:102DA400064804F039FD00BF0837BD4680BD00BFAA
:102DB40030010020D802002000090020F802002081
:102DC40080B588B006AF00F0B9FD124B124A5A61C3
:102DD400124B0593012304930023039300230293CE
:102DE40000230193002300930D4B4FF480620D499F
:102DF400094800F0A9F87860074804F025FD064862
:102E040000F0D6FB0020FFF795FF7B6818460837D3
:102E1400BD4680BDD8020020B0000020D48900083F
:102E2400792C00084003002080B582B000AF7860A0
:102E3400024A79680248FEF73FF800BF792C00087F
:102E4400B000002080B5A2B000AF04F00DFD00205A
:102E5400FFF7BEFE304804F0ECFC034603F50063C4
:102E6400C7F88430D7F88430C7F88030D7F880307A
:102E740083F3088800BF294B5B69284A43F4007335
:102E8400536100BFFF216FF00100FFF749FE0021ED
:102E94006FF00400FFF744FE00216FF00B00FFF712
:102EA4003FFE00216FF00A00FFF73AFE00216FF0A9
:102EB4000900FFF735FE00216FF00300FFF730FE35
:102EC400164B5B6A154A43F4E023536200BFFDF7D7
:102ED4003FFEFEF717F8114B4FF0FF329A620F4B8B
:102EE4004FF0FF32DA6200BFFEF786F9FEF75CF8B6
:102EF40000BF3B461846FFF73DFEFFF771FD01207A
:102F0400FFF766FE0220FFF763FEFFF759FF034653
:102F14001846FFF789FF00BF0009002000ED00E01C
:102F240080B584B000AFF860C7E90023FB6803F103
:102F34001800D7E90023034900F00CFE00BF103746
:102F4400BD4680BDF37F000880B58AB004AFF86049
:102F5400B9607A603B60FB685833184604F0FFFCA4
:102F6400F8683B6B0422F96A04F0AEFD7A68B9682C
:102F7400F86804F028FD7861BB6A02937B6A0193C8
:102F84003B6A00933B687A69B968F868FDF724FFE7
:102F9400FB6800225A65094B9B68002B04D1FB682F
:102FA4000022DA667B6905E0044B9B68DA6EFB68F5
:102FB400DA667B6918461837BD4680BDD802002002
:102FC400F0B58FB006AF314BFB6129E0FB691E6899
:102FD400FB695B68FB60FB699A68BA60FB69D86847
:102FE4007860FB691B69FA695269F9698969F8694A
:102FF400C069FC69246AFD696D6A059504940390AF
:103004000291019200937B68BA68F9683046FFF731
:103014009BFFFB691B68FA695A65FB693033FB61E6
:10302400FB691B4A934234BF01230023DBB2002B0C
:10303400CCD100F0F3FB154BBB6118E0BB69D3E9BD
:103044000A23C7E90423D7E904234FF0FF304FF0E4
:10305400FF318B4208BF824206D0BB691968D7E9A9
:103064000423084604F092FCBB693033BB61BB699E
:10307400074A934234BF01230023DBB2002BDDD186
:1030840000F004FC00BF2437BD46F0BDF8880008FA
:10309400F888000880B483B000AF78607B68054A84
:1030A40093420CBF01230023DBB218460C37BD4604
:1030B40080BC70473001002080B400AF044B9B6893
:1030C400DA7B013AD2B2DA7300BFBD4680BC7047E6
:1030D400D802002080B58CB000AF7860786804F026
:1030E40081FE0346002B19D07B68FB62FB6A5B7B85
:1030F40003F07F03DAB2FB6A5A73F86A04F01DFF27
:103104000346002B09D0FB6ABB62BB6A7B62344B6B
:10311400B96A184604F0F4FF00BF00BF7B683B6245
:103124003B6A5B7B63F07F03DAB23B6A5A73386AAB
:1031340004F003FF0346002B42D03B6AFB61FB69AA
:10314400BB61274B7B61FB693B61786904F01BFD24
:103154000346002B04D0786904F015FD034600E013
:103164000023FB6023E0F968386904F0CBFE0346D2
:10317400002B06DDFB683A691146184604F054FD3D
:103184001DE0FB68002B10D0FB681946786904F039
:103194001FFD0346002B06D0FB681946786904F02E
:1031A40017FD034602E0002300E00023FB60FB68F8
:1031B400002BD8D13B691946786904F01CFD00BF87
:1031C40000BF084B9B687A689A420CBF0123002316
:1031D400DBB2184600F01EF900BF3037BD4680BD93
:1031E400F0020020D802002080B485B000AF7860DF
:1031F400044B1B68FB60FB6818461437BD4680BC53
:10320400704700BFFC02002080B584B000AF786036
:10321400786804F05DFE0346002B29D07868FFF738
:10322400E3FF0346002B23D07B6893F90E301A4644
:10323400154B1B681946104604F022FE034683F022
:103244000103DBB2002B13D0786804F058FD034669
:1032540083F00103DBB2002B0AD07868FFF71AFF72
:10326400034683F00103DBB2002B01D0012300E00D
:103274000023FB73FB7B03F00103FB73FB7B18460A
:103284001037BD4680BD00BF0003002080B485B068
:1032940000AF78607B68084A9B1ADB10074A02FB80
:1032A40003F3FB60064AFB68134401221A7000BF53
:1032B4001437BD4680BC7047B0010020ABAAAAAA4F
:1032C400040300202DE9904385B000AF7860194BCA
:1032D4001B7CFB60FA6813465B001344DB00164A50
:1032E4001344184600F020FD144AFB6813440022DE
:1032F4001A707868FFF788FF0346002B14D0FA6829
:1033040013465B001344DB000B4A9C187868FFF7F4
:103314006BFF0346013BDA179846914642464B46FB
:103324000749204600F016FC00BF1437BD46BDE82F
:10333400908300BFD8020020B001002004030020C5
:103344009132000880B58EB000AF2E4B3B634FF036
:103354001003EFF3118283F31288BFF36F8FFA62C5
:10336400BB62FB6A3B603B6B7B6200BF3B6B3B62B7
:1033740000BF3B68FB60244B9B687B63234B1B684B
:103384007A6B9A420FD1786BFFF79CFF1D4BFB6160
:10339400FB687B607B68BB61BB6983F31188BFF307
:1033A4006F8F00BF2BE0194B00221A60164B1B7C59
:1033B4001A46174B9B5C002B14D0786BFFF724FF45
:1033C4000346002B0ED0786B04F099FC034683F07F
:1033D4000103DBB2002B02D0786BFFF77BFE786B26
:1033E400FFF770FF074B7B61FB68BB60BB683B6109
:1033F4003B6983F31188BFF36F8F00BF00BF383779
:10340400BD4680BDFC020020D80200200803002035
:103414000403002080B586B000AF7860294B1846BD
:1034240004F07BFE0346BB60BB68002B02D1264B35
:10343400DB6800E0BB687B617B693B617B68FB60A8
:10344400FB68002B01D0012322E01F4B9B68184628
:1034540004F055FC0346002B01D0012318E0386921
:1034640004F061FC0346002B01D0012310E0164B4D
:103474009B68184604F02CFD0346002B05D13869DF
:1034840004F036FD0346002B01D0012300E00023A5
:10349400002B0ED00C4B9B687A699A4202D0786953
:1034A400FFF710FF786904F06EFD074A7B695361EA
:1034B40003E0054B9B68044A536100BF1837BD46BF
:1034C40080BD00BFF0020020D802002080B588B083
:1034D40000AF7860786804F085FC034683F001034C
:1034E400DBB2002B5DD0786804F036FC0346002B79
:1034F40057D07B68FB61FB695B7B63F07F03DAB2C7
:10350400FB695A73F86904F018FD0346002B42D096
:10351400FB69BB61BB697B61244B3B61BB69FB609D
:10352400386904F030FB0346002B04D0386904F0FA
:103534002AFB034600E00023BB6023E0B968F86877
:1035440004F0E0FC0346002B06DDBB68FA68114674
:10355400184604F069FB1DE0BB68002B10D0BB6863
:103564001946386904F034FB0346002B06D0BB68C7
:103574001946386904F02CFB034602E0002300E0FE
:103584000023BB60BB68002BD8D1FB68194638699F
:1035940004F031FB00BF00BF0020FFF73BFF04F045
:1035A400ECFC00BF2037BD4680BD00BFF002002008
:1035B40080B58EB000AF78600023BB611C4B7B6389
:1035C4004FF01003EFF3118283F31288BFF36F8F70
:1035D4003A63FB623B6BFB607B6BBB6200BF7B6B44
:1035E4007B6200BFFB687B611AE0786804F0D4FC5E
:1035F400034683F00103DBB2002B02D07868FFF7A7
:1036040065FF0B4B3B627B693B613B69FB61FB697B
:1036140083F31188BFF36F8F00BF00BF0123BB6129
:10362400BB69002BE1D000BF00BF3837BD4680BD69
:10363400FC02002080B58CB000AF78601A4BFB62AE
:103644004FF01003EFF3118283F31288BFF36F8FEF
:10365400BA627B62BB6ABB60FB6A3B6200BFFB6A07
:10366400FB6100BFBB683B61786804F095FB0346CF
:10367400002B0CD00C4BBB613B69FB60FB687B618E
:103684007B6983F31188BFF36F8F00BF09E078680B
:1036940004F0C5FB7868FFF719FF3969024804F0A4
:1036A400DCFC3037BD4680BDFC02002080B58CB008
:1036B40000AFF860B9601346FB71FB79002B01D0B1
:1036C400082300E010231946F86800F04FF9184B5E
:1036D4009B68FA689A4219D1EFF30583FB62FB6A8F
:1036E400002B14BF01230023DBB283F00103DBB200
:1036F400002B0BD00F4BBB62BB687B61BB6A7B6248
:1037040000BF7B69184604F0D6FB0CE0094B3B6212
:10371400BB68BB61BB69FB61FB6983F31188BFF3C1
:103724006F8F00BF00BF00BF3037BD4680BD00BFF4
:10373400D8020020FC02002080B58EB000AF786073
:103744000B46FB7000237B61284B3B634FF0100357
:10375400EFF3118283F31288BFF36F8FFA62BB62B7
:10376400FB6ABB603B6B7B6200BF3B6B3B6200BF91
:10377400BB683B6132E07B685B7B03F02803002B72
:1037840014BF0123002387F8373097F8373083F0CC
:103794000103DBB2002B12D07B689B68002B02D0A4
:1037A400786804F00EFC786804F039FBFB78002B91
:1037B40002D0786804F023FB7868FFF787FE0B4B90
:1037C400FB613B69FB60FB68BB61BB6983F31188E8
:1037D400BFF36F8F00BF00BF01237B617B69002BA8
:1037E400C9D000BF00BF3837BD4680BDFC020020F1
:1037F40080B483B000AF084B5B697B60064B9B6869
:103804007A689A4214BF01230023DBB218460C37AE
:10381400BD4680BC704700BFD802002080B58CB084
:1038240000AF00233B61184BFB624FF01003EFF332
:10383400118283F31288BFF36F8FBA627B62BB6A13
:103844007B60FB6A3B6200BFFB6AFB6100BF7B6875
:10385400FB6010E0FFF730FC0B4BBB61FB68BB6007
:10386400BB687B617B6983F31188BFF36F8F00BFF3
:1038740000BF01233B613B69002BEBD000BF00BFBD
:103884003037BD4680BD00BFFC02002080B5E6B0E5
:1038940000AF0023C7F87831264BC7F880314FF0CA
:1038A4001003EFF3118283F31288BFF36F8FC7F80D
:1038B4007C21C7F88431D7F87C31C7F86C31D7F84C
:1038C4008031C7F88C3100BFD7F88031C7F8883110
:1038D40000BFD7F86C31C7F874311EE0164B9B68F3
:1038E400DA7B0132D2B2DA730020FFF793FD114B79
:1038F400C7F89031D7F87431C7F87031D7F8703100
:10390400C7F89431D7F8943183F31188BFF36F8FDC
:1039140000BF00BF0123C7F87831D7F87831002BF6
:10392400DCD000BF04F0D6F900BF07F5CC77BD4664
:1039340080BD00BFFC020020D802002080B500AF8B
:10394400024804F0FEFB00BF80BD00BFEC02002073
:1039540080B483B000AF044B9B687B607B681846DF
:103964000C37BD4680BC7047D802002080B586B0B5
:1039740000AF78600B46FB707B685A7BFB78134082
:10398400DBB2002B40D17B685A7BFB781343DAB25D
:103994007B685A73786804F0E0FA786804F022FAD5
:1039A4000346002B19D07B687B617B695B7B03F04A
:1039B4007F03DAB27B695A73786904F0BEFA03466E
:1039C400002B09D07B693B613B69FB60104B396973
:1039D400184604F095FB00BF00BFFB78082B0ED1FE
:1039E4007B689B68002B02D0786804F0EAFA786858
:1039F40004F062F97B685833184604F0AFFB0120E9
:103A0400FFF708FDFB78102B1837BD4680BD00BFBB
:103A1400F002002080B590B000AF7860254BFB63C6
:103A24004FF01003EFF3118283F31288BFF36F8F0B
:103A3400BA637B63BB6BFB60FB6B3B6300BFFB6BDD
:103A4400FB6200BFFB68BB617B681B7B03F0010367
:103A5400002B13D0174BBB62BB693B613B697B6294
:103A64007B6A83F31188BFF36F8F00BF00BF4040B0
:103A740080F311884FF0040002DF18E07B685B7B61
:103A840003F00803002B0DD00A4B3B62BB697B613A
:103A94007B69FB61FB6983F31188BFF36F8F00BF00
:103AA40000BF04E00122B9697868FFF7FFFD4037E1
:103AB400BD4680BDFC02002080B500AF074A084B1C
:103AC400D31A1A460749064803F0EDFE064B1A4678
:103AD4000649074803F0E7FE00BF80BD9E000020B2
:103AE40000000020BC8C000800000000BC8C000812
:103AF4000000002080B582B000AF044804F09AFBB7
:103B040078607B6818460837BD4680BD8000002079
:103B140080B584B000AF78607B681946044804F02F
:103B2400AEFBF860FB6818461037BD4680BD00BF89
:103B34008000002080B500AF054B1B68002B03D12B
:103B4400FEF708FE034600E00023184680BD00BFD0
:103B54000C0300202DE9B04F9EB000AF78633963A9
:103B6400C7E90A23D7E90A014FF0FF324FF0FF33C8
:103B7400994208BF904200D1CCE07A6B3B6B9360D2
:103B84000023BB64654B7B664FF01002EFF3118397
:103B940082F31288BFF36F8F3B66FA653B6EFB635B
:103BA4007B6EBB6500BF7B6E7B6500BFFB6B7B647C
:103BB400ACE0D7E90A236FF001004FF0FF31801A1F
:103BC400386261EB03037B627B6A002B24DBD7E959
:103BD4000A2310461946524BD3E90023841841EBBB
:103BE40003056FF001024FF0FF33121BBA6163EB60
:103BF4000503FB61D7E90623C7E91A23D7E91A238A
:103C0400012A73F1000103DA4FF001024FF00003BF
:103C1400796BC1E9042316E0D7E90A2312F10108FC
:103C240043F10009FFF786FF0346DA179A469346E5
:103C340018EB0A033B6149EB0B037B617B6BD7E910
:103C44000412C3E90412FFF755FF786737E07B6F6E
:103C5400D3E904017B6BD3E9042382428B4118DA54
:103C64007B6FD3E904017B6BD3E90423B0EB020C33
:103C7400C7F808C061EB0303FB607B6FD7E902124E
:103C8400C3E904127A6F7B6B1946104604F023FBD8
:103C940018E07B6BD3E904017B6FD3E90423B0EB19
:103CA400020CC7F800C061EB03037B607B6BD7E9B0
:103CB4000012C3E90412786FFFF72AFF78677B6F5D
:103CC400002BC4D17B6F002B04D17B6B19461548A4
:103CD40004F0E8FAFFF70EFF02467B6B934206D12D
:103CE40004F049FB034600211846FEF737FC0B4B52
:103CF4003B657B6C3B643B6CFB64FB6C83F311881E
:103D0400BFF36F8F00BF00BF0123BB64BB6C002BEC
:103D14003FF44FAF7837BD46BDE8B08F0C030020A9
:103D2400C80100208000002080B58EB000AF78600C
:103D34006FF015037B6300237B611D4B3B634FF0E6
:103D44001003EFF3118283F31288BFF36F8FFA62CB
:103D5400BB62FB6ABB603B6B7B6200BF3B6B3B623D
:103D640000BFBB683B611AE07B68184604F041FA67
:103D74000346002B04D0786804F0DDFA00237B634B
:103D84000B4BFB613B69FB60FB68BB61BB6983F365
:103D94001188BFF36F8F00BF00BF01237B617B6974
:103DA400002BE1D07B6B18463837BD4680BD00BF81
:103DB4000C0300202DE9B04FA0B000AF7862624B35
:103DC4007B674FF01002EFF3118382F31288BFF385
:103DD4006F8F3B67FA663B6F7B637B6FBB6600BF8D
:103DE4007B6F7B6600BF7B6BFB63584A7B6A136007
:103DF400FFF780FEF86750E0FB6FD3E90423134616
:103E0400BB67BB6FDA179A469346514BD3E900233D
:103E14001AEB0201B9614BEB0303FB614C4BD7E98D
:103E24000612C3E90012F96F4FF000024FF00003CD
:103E3400C1E90423F86F04F07EFA434BFB64FB6B87
:103E44003B633B6BBB64BB6C83F31188BFF36F8F25
:103E540000BF00BFFB6F9B68F86F98473A4B3B6607
:103E64004FF01002EFF3118382F31288BFF36F8FC8
:103E7400FB65BA65FB6DFB623B6E7B6500BF3B6E09
:103E84003B6500BFFB6AFB63304B1A68BB6FD21AF9
:103E94002E4B1A60FFF72EFEF867FB6F002B0DD038
:103EA400FB6FD3E90401294B1B68DA173B617A6184
:103EB400D7E90423944684458B419DDAFB6F002B9C
:103EC40012D0FB6FD3E9042320490968C817884638
:103ED4008146B2EB0801B96063EB0903FB60FB6F39
:103EE400D7E90212C3E90412184B1B68DA171C46FF
:103EF4001546174BD3E90023A118396045EB03039A
:103F04007B60134BD7E90012C3E900120F4B002268
:103F14001A6004F030FA034600211846FEF71EFB2F
:103F2400094B7B64FB6BBB63BB6B3B643B6C83F3F4
:103F34001188BFF36F8F00BF00BFFFF703FA80370C
:103F4400BD46BDE8B08F00BF0C0300200C03002069
:103F5400C801002080B500AF024800F088FE00BF11
:103F640080BD00BFDC8900082DE9F04F8DB04368A7
:103F74000293837815469A07804640F10D81002408
:103F84000E78002E00F00A81252E0BD04B1C0393D3
:103F94000134029B4146304698470028C0F2F6801F
:103FA4000399EDE74E788B1C252E0393F0D0002760
:103FB400B946BB46BBF11F0F38D8A6F12003102B1E
:103FC4000AD8DFE803F02A09093009090921090997
:103FD4000928092D09091F00A6F13003092B33D93B
:103FE4002A2E37D11BF0400F55F8043B40F0828055
:103FF400002BA7BF4BF0200B9946C3F100094BF0EF
:10400400280B01E04BF0010B039B13F8016B0393A6
:10401400002ECFD130E04BF0020B4BF0040BF3E752
:104024004BF0080BF0E74BF0100BEDE7BBF17F0F03
:1040340019D8A6F13003092BD2D81BF0400F03D0B6
:104044000A2101FB0737DFE70A2101FB09394BF09D
:10405400200BD9E72E2E06D11BF0400F40F09E8096
:104064004BF0400BD0E76C2E31D02BD8682E36D0D5
:104074006A2E3CD04C2E3AD0002F46F02003B8BF15
:104084002BF04002A3F16501BCBF1FFA82FB00279D
:10409400022901D9612B2FD1073525F00705DFF857
:1040A400ACA2083507271BF0080F66D00AEB070BF4
:1040B40056465E4563D1A4EB0A0A06EB0A02A9EB55
:1040C40007096FE1742E9FD07A2E9DD0D4E71BF0A0
:1040D400800F18BF4BF4007B4BF0800B94E71BF46C
:1040E400807F18BF4BF4007B4BF4807B8CE74BF450
:1040F400207B89E71F4687E7A6F16301122900F2B6
:10410400F080DFE811F013004F00EE00EE00EE0047
:10411400EE004F00EE00EE00EE00EE00EE00FE00BA
:10412400E900EE00EE001B00EE00AF0055F8043B82
:104134008DF8183001270DF1180AB4E755F804ABCF
:10414400834BBAF1000F08BF9A461BF0400F14BF0F
:1041540039464FF0FF31504604F04BF90746A2E7C9
:10416400029B41462020984700280FDB013EB742BE
:10417400F6D34C44A41BB14698E74E46F7E716F82D
:10418400010B029B41469847002892DA98F80230C6
:1041940043F0040388F802304FF0FF3420460DB09A
:1041A400BDE8F08F1BF0800F34D01BF4007F2CD0BF
:1041B400073525F00705AA4669685AF8080B2BF05D
:1041C40010050029ADB237DA404261EB410145F4F4
:1041D40080650DF1180B0A235A4604F016F9A0EB7A
:1041E4000B0301936B0662D5019B25F001019F42ED
:1041F40089B240F3A180002E00F0998015F01002DE
:1042040040F09C80BB460D4623E0AA465AF8040BB6
:10421400C117D4E7AA461BF4807F5AF8041B01D1C6
:104224000846F5E71BF4007F15BF48B208B241F316
:10423400C01141F3C031C2E750EA0103C9D11BF0F8
:10424400400FC6D0002FC4D12BF0110295B2BB464B
:10425400019740F2064115EA01021CBF0BF1010B64
:1042640000222CE02BF010021FFA82FB0A231BF021
:10427400800C49D01BF400711DBF073525F00705DC
:10428400AA46AA461ABF5AF8080B69685AF8040BDA
:1042940050EA010545D12BF016051BF0400FADB2D5
:1042A40042D0002F40D12BF0170295B2019715F0A0
:1042B400100248D0019B002E42D103F1010B2907C3
:1042C4005AD4EB0706D5D9456FDD0199A9EB0B0349
:1042D4005F18CB465B4649E04BF0100B1023782661
:1042E400C5E7782B04D1C6F1780343F01003BEE789
:1042F400029B4146252098470028FFF647AF023429
:1043040047E608230026B2E7AA461BF480715AF850
:10431400040BBDD01BF400711ABFC0B2614680B259
:10432400B6E72BF0060295B20DF1180B54E725F011
:104334001105ADB2BB468CE70D46B8E73B460D46CA
:1043440003F1020BBBE7DDF804B082E7B38C00088D
:10435400AC8C0008CDE904324146029B20209847EA
:104364000028FFF613AF049B059A01339945F1DC4D
:10437400A4EB0B01CC189B460AB3029B41463020A8
:1043840098470028FFF602AF8EB901342744019BF9
:10439400391B994224DC1D465DBB019AA9EB0B092C
:1043A400224455461446914435E0019F92E7023475
:1043B40041463046029B98470028E7DAE6E640F299
:1043C40006410D42E2D015F0020F14BF2B2020202D
:1043D40015F4806F04F10104414618BF2D20E9E76C
:1043E400029B414630209847002804F10104CEDAAC
:1043F400CCE606AB013D4146585D029B9847002838
:10440400CADAC3E6029B414620209847002804F1FB
:104414000104FFF6BBAEA9EB0403002BF2DCBFE5FD
:1044240080B400AF00BFBD4680BC704780B588B083
:1044340000AFF8600B467A60FB72FB689B68FB6117
:10444400FB685B68BB61FB681B697B617B6803F489
:104454008013002B0DD07B6803F44023002B08D07D
:104464007B6803F00103002B03D07B6883F44023B3
:104474007B607B6823F480137B607B6803F001031B
:10448400002B09D07B691A68FB7A012101FA03F336
:104494001A437B691A6009E07B691A68FB7A012177
:1044A40001FA03F3DB431A407B691A60FB691B685A
:1044B400F97A7A68F8689847034618462037BD4663
:1044C40080BD80B584B000AF786039607B689B683C
:1044D400FB60FB685B683968786898470346184650
:1044E4001037BD4680BD80B584B000AF78603960B8
:1044F4007B681B69FB603968786800F0B6F8B860BF
:10450400BB68002B06D13B681A68FB681B685A40DD
:104514003B681A60BB6818461037BD4680BD80B53D
:1045240084B000AF786039607B689B68FB60FB688F
:10453400DB68396878689847034618461037BD46E3
:1045440080BD80B584B000AF786039607B689B68BB
:10455400FB60FB681B69396878689847034618460E
:104564001037BD4680BD80B586B000AF78600B467D
:10457400FB707B685B683B6107F10C031946786844
:10458400FFF7B1FF78617B69002B0AD1FB78012228
:104594009A40FB681340002B14BF01230023DBB2B5
:1045A4007B617B6918461837BD4680BD80B586B0EF
:1045B40000AFF8600B467A60FB72FB685B683B6196
:1045C4007B68002B09D0FB7A012202FA03F3194617
:1045D400F86800F058F8786108E0FB7A012202FAE2
:1045E40003F31946F86800F05CF878617B691846B3
:1045F4001837BD4680BD80B586B000AFF8600B4665
:104604007A60FB72FB685B687B61FB681B693B61DA
:104614003B691A68FB7A012101FA03F31340002B6A
:1046240006D07B68002B0CBF01230023DBB27B6028
:10463400FB7A7A681946F868FFF7B8FF034618460C
:104644001837BD4680BD80B584B000AFF8600B4616
:104654007A60FB72FB7A7A681946F868FFF7E6FE1F
:10466400034618461037BD4680BD80B582B000AF02
:104674007860396039687868FFF723FF0346184685
:104684000837BD4680BD80B582B000AF7860396020
:1046940039687868FFF743FF034618460837BD4674
:1046A40080BD80B582B000AF7860396039687868C1
:1046B400FFF747FF034618460837BD4680BD80B460
:1046C40083B000AF7860002318460C37BD4680BC29
:1046D400704780B582B000AF78607B68DB0818460D
:1046E400FFF7EDFF034618460837BD4680BD80B589
:1046F40082B000AF78607B689B681846FFF7DFFFE5
:10470400034618460837BD4680BD80B483B000AF69
:1047140078607B6818460C37BD4680BC704780B50E
:1047240086B000AFF860B9601346FB71F868FFF714
:10473400ECFF7861BB68DB007A6913443B61F8687D
:10474400FFF7D5FF0346002B05D0FB799B003A69A0
:1047540013441B6804E0FB795B003A6913441B882B
:1047640018461837BD4680BD80B586B000AFF860E6
:10477400B9603B601346FB71F868FFF7C6FF7861C8
:10478400BB68DB007A6913443B61F868FFF7AFFF4D
:104794000346002B06D0FB799B003A6913443A6820
:1047A4001A6006E0FB795B003A6913443A6892B2F6
:1047B4001A8000BF1837BD4680BD80B582B000AFF7
:1047C40078603960012239687868FFF7A8FF0346EA
:1047D4005B0818460837BD4680BD80B586B000AF7B
:1047E400F860B9601346FB71F868FFF78EFF7861D3
:1047F400BB68DB007A6913443B61F868FFF777FF15
:104804000346002B14D0FB79002B08D03B690433FA
:104814001A683B69043342F001021A601EE03B69E6
:1048240004331A683B69043322F001021A6015E06C
:10483400FB79002B09D03B6902331A883B690233A8
:1048440042F0010292B21A8008E03B6902331A88EE
:104854003B69023322F0010292B21A8000BF18377A
:10486400BD4680BD80B584B000AFF860B9607A60A1
:104874007B685B000122B968F868FFF775FF00BF29
:104884001037BD4680BD80B582B000AF7860396016
:10489400022239687868FFF742FF03461846083752
:1048A400BD4680BD80B584B000AFF860B9607A6061
:1048B4007B680222B968F868FFF756FF00BF10371B
:1048C400BD4680BD80B584B000AFF860B9607A6041
:1048D4007B680322B968F868FFF746FF00BF10370A
:1048E400BD4680BD80B584B000AFF860B9607A6021
:1048F4007B680022B968F868FFF736FF00BF1037FD
:10490400BD4680BD80B582B000AF786039607868FC
:10491400FFF7EDFE0346002B08D039687868FFF7EF
:104924004CFF0346012B01D1012300E0002303F0D7
:104934000103DBB218460837BD4680BD80B582B09E
:1049440000AF78607868FFF7D2FE0346002B01D0F1
:10495400082300E0042318460837BD4680BD80B50F
:1049640082B000AF78607868FFF7B3FE0346002B8F
:1049740001D0082300E0042318460837BD4680BD53
:1049840080B483B000AF78607B680733DB081846D7
:104994000C37BD4680BC704780B582B000AF7860EC
:1049A40039607868FFF7CAFF02463B68134418462B
:1049B400FFF7E6FF034618460837BD4680BD80B5BD
:1049C40082B000AF786001217868FFF7E5FF034605
:1049D40018460837BD4680BD80B584B000AF786006
:1049E40039607868FFF7EBFF02463B689B1A013396
:1049F400FB60FB68B3FA83F3C3F11F031846103757
:104A0400BD4680BD80B588B000AFF860B9607A60FB
:104A14007B6804339B00FA681344FB61FB691B68E1
:104A2400002B16D1FB68DA6801217B6801FA03F3D5
:104A34001A43FB68DA60FB69BA681A60BA68B96835
:104A4400F868FFF72FFFBA68B968F868FFF73AFF0C
:104A54001BE0FB691B68BB61B969F868FFF713FFCA
:104A640078617A69B968F868FFF71CFFBA69B968B0
:104A7400F868FFF727FFBA687969F868FFF722FF3B
:104A8400BA68B969F868FFF70DFF00BF2037BD4663
:104A940080BD80B584B000AF7860396039687868CB
:104AA400FFF730FF034683F00103DBB2002B0ED087
:104AB40039687868FFF781FE034619467868FFF77E
:104AC4008BFFF860FA6839687868FFF79BFF00BFCE
:104AD4001037BD4680BD80B58CB000AFF860B960BA
:104AE4007A607868FFF73BFF02467B689B1A7B601D
:104AF400BB68073323F00703BB62BA687B681344BF
:104B040023F007037B627A6ABB6AD31ADB083B6231
:104B1400BB6AFB61FB68FA691A60FB693A6A9A60CE
:104B2400FB690022DA60396AF869FFF755FF03462A
:104B34000133BB61BB6904339B001846FFF720FFB8
:104B440078610023FB6208E0FB69FA6A0432002101
:104B540043F82210FB6A0133FB62FA6ABB699A428A
:104B6400F2DB7A690021F869FFF77CFE002200215C
:104B7400F869FFF7B7FE01220021F869FFF72DFE5F
:104B84003A6A7B69D31A1A467969F869FFF76AFEAB
:104B94007A697969F869FFF7A5FE0022396AF8692C
:104BA400FFF760FE3A6A7B69D31A1A46396AF869D4
:104BB400FFF798FE0122396AF869FFF70EFE79695A
:104BC400F869FFF766FF00BF3037BD4680BD80B48B
:104BD40000AF00231846BD4680BC704780B582B044
:104BE40000AF7860396039687868FBF7A3FB00BFD1
:104BF4000837BD4680BD80B483B000AF7860002321
:104C040018460C37BD4680BC704780B582B000AFF3
:104C140078607B6803F114027B681B6919461046AF
:104C2400FFF7DCFF7B6800221A6100BF0837BD462E
:104C340080BD80B584B000AF786039603B68FB60AC
:104C4400FB681B69591CFA6811617A68D1B2FA6869
:104C540013440A461A75FB681B69002B02D1F868D5
:104C6400FFF7D3FF7B6818461037BD4680BD0FB4ED
:104C740080B582B000AF07F114037B6079683869AE
:104C8400FBF718FB00BF0837BD46BDE8804004B001
:104C9400704780B500AFFEF75BFE0346184680BD43
:104CA40080B582B000AF78607868FBF77FFF00BF03
:104CB4000837BD4680BD80B400AF00BFBD4680BC90
:104CC400704780B500AFFBF797FB0023184680BD03
:104CD40080B4ADF52B7D00AF07F52A73A3F52973D6
:104CE400186000BF00BF00BF00BF00BF07F52B77EF
:104CF400BD4680BC704780B582B000AF7860396033
:104D04003B68002B02D03868FFF7E2FF3968786807
:104D1400FDF784FE00BF0837BD4680BD80B584B072
:104D240000AF786039607B681B68FB607968F8685D
:104D3400FFF7E1FF00BF1037BD4680BD80B582B0EC
:104D440000AF78603960FBF785FB03465B423A6845
:104D540013443B603868FBF7A7FB3B68083B3B60A8
:104D64003A687B681A67FBF775FB034608331846F5
:104D74000837BD4680BD80B483B000AF7860396029
:104D840000BF0C37BD4680BC704780B483B000AF11
:104D940078600B46FB70002318460C37BD4680BC78
:104DA400704780B4CDB000AF07F59873A3F5967340
:104DB400186007F59873A3F59873196007F598734D
:104DC400A3F598731B6800221A7000BF00BF07F593
:104DD4009A77BD4680BC704780B4DDB000AF07F55C
:104DE400B873A3F5B673186007F5B873A3F5B87371
:104DF400196000BF00BF07F5BA77BD4680BC704795
:104E040090B4D0B000AF07F5A074A4F59A742060F4
:104E140007F5A070A0F59C70016007F5A071A1F5DD
:104E24009E710A6007F5A072A2F5A07213600023B8
:104E340087F83B310023C7F83C3107F5A073A3F58D
:104E4400A0731B6800221A7007F5A073A3F59E7364
:104E54001B6803F07F43B3F17F4F01D000233CE094
:104E640007F5A073A3F59E731B6803F00803002BDA
:104E74000BD007F5A073A3F59E731B6803F004031E
:104E8400002B02D100BF002327E097F83B3183F0C9
:104E94000103DBB2002B1ED007F5A073A3F59E73AC
:104EA4001B6803F00803002B07D007F5A073A3F5D4
:104EB4009C731B68C7F83C310DE007F5A073A3F59C
:104EC4009A731B68C7F83C3107F5A073A3F5A07368
:104ED4001B6801221A70D7F83C31184607F5A077F1
:104EE400BD4690BC704780B582B000AF78607B68E7
:104EF4005BB21846FBF7F0FE00BF0837BD4680BD25
:104F040080B584B000AFF860B9607A60BB680133E3
:104F1400BB60FB685BB2B9681846FBF7F9FE00BFDB
:104F24001037BD4680BD80B582B000AF78600021E7
:104F34000120FFF7E0FE00BF0837BD4680BD80B505
:104F440000AFFBF70FFFFBF727FFFDF731FEFEF77E
:104F5400B3FD00F008F8FDF775FF80B400AF00BFA3
:104F6400BD4680BC704780B582B000AF00237B6033
:104F740008E07B685BB201211846FBF7D7FF7B682A
:104F840001337B607B68542BF3DD00BF00BF08371F
:104F9400BD4680BD80B400AF00BFBD4680BC704735
:104FA40080B485B000AF78607B685A687B685B68C2
:104FB400013B1340002B0DD17B685B681F2B09D983
:104FC4007B681A687B685B68013B1340002B01D146
:104FD400012300E00023FB60FB6818461437BD463C
:104FE40080BC704780B483B000AF78607B68202BAE
:104FF40001D808230EE07B68B3F1004F01D93E23AA
:1050040008E07B68013BB3FA83F3C3F11F035B0041
:1050140003F03E0318460C37BD4680BC704790B57C
:1050240085B000AFF860B9607A603B60BB681C680B
:105034003868FFF7D7FF034644EA0302FB681A60A7
:1050440000BF1437BD4690BD80B582B000AF786014
:105054007868FBF7F3FF00BF0837BD4680BD90B505
:10506400E7B000AF024607F5CC73A3F5CC73196023
:1050740007F5CC73A3F291131A7007F5CC73A3F25E
:1050840091131C78FBF7ECFF0346013B9C4203D9C8
:1050940000BF6FF0150312E000BF07F5CC73A3F255
:1050A40091131A7807F5CC73A3F5CC7319681046DD
:1050B400FBF7F8FF07F5CC73A3F291131B7818469E
:1050C40007F5CE77BD4690BDB0B5E4B000AF07F5A7
:1050D400C873A3F5C673186007F5C2731846FBF7C7
:1050E40099F9C7F888010023C7F88C3128E1D7F86B
:1050F4008421D7F88C311B011344DB681B0D1B057D
:10510400B3F1007F00F0D180B3F1007F00F2EF80B3
:10511400B3F1807F00F0A780B3F1807F00F2E780D5
:10512400B3F5000F7DD0B3F5000F00F2E080B3F5C6
:10513400800F52D0B3F5800F00F2D980B3F5801FF1
:1051440003D0B3F5001F24D0D1E0D7F88421D7F8D9
:105154008C311B0113445D68D7F88421D7F88C3156
:105164001B0113441C68D7F88421D7F88C311B0128
:1051740013449B681846FFF735FF034643F08853F2
:1051840043F43023C7F87851C7F87C41C7F880311D
:10519400B1E0D7F88421D7F88C311B0113445D6842
:1051A400D7F88421D7F88C311B0113441C68D7F835
:1051B4008421D7F88C311B0113449B681846FFF7F0
:1051C40011FF034643F0885343F40023C7F8785192
:1051D400C7F87C41C7F880318DE0D7F88421D7F82F
:1051E4008C311B0113445D68D7F88421D7F88C31C6
:1051F4001B0113441C68D7F88421D7F88C311B0198
:1052040013449B681846FFF7EDFE034643F0E06342
:1052140043F40033C7F87851C7F87C41C7F88031AC
:1052240069E0D7F88421D7F88C311B0113445D68F9
:10523400D7F88421D7F88C311B0113441C68D7F8A4
:105244008421D7F88C311B0113449B681846FFF75F
:10525400C9FE034643F08273C7F87851C7F87C410E
:10526400C7F8803147E0D7F88421D7F88C311B0187
:1052740013445D68D7F88421D7F88C311B0113449B
:105284001C68D7F88421D7F88C311B0113449B6820
:105294001846FFF7A7FE034643F08873C7F8785112
:1052A400C7F87C41C7F8803125E0D7F88421D7F8C6
:1052B4008C311B0113445D68D7F88421D7F88C31F5
:1052C4001B0113441C68D7F88421D7F88C311B01C7
:1052D40013449B681846FFF785FE034643F4802376
:1052E400C7F87851C7F87C41C7F8803103E000BFA4
:1052F4006FF015032CE007F5C873A3F5C6731B689C
:105304001B7807F5BC7211461846FFF7A8FE034642
:10531400002B02DA6FF015031AE007F5C873A3F542
:10532400C6731B681B780133DAB207F5C873A3F59B
:10533400C6731B681A70D7F88C310133C7F88C31E7
:10534400D7F88C21D7F888319A42FFF4D0AE0023E5
:10535400184607F5C877BD46B0BD90B5D9B000AFC3
:10536400024607F5B073A3F5B073196007F5B0737F
:10537400A3F259131A7000BF07F5B073A3F5B07305
:105384001B681B68C7F8543107F5B073A3F5B073F5
:105394001B6803F1080107F5B073A3F5B0731B682C
:1053A4001A6807F5B073A3F5B0731B685C6807F55A
:1053B400AA7303F108002346FFF731FE07F5AA722A
:1053C40007F5B073A3F259131B7811461846FFF77B
:1053D40046FE0346184607F5B277BD4690BD90B524
:1053E400D7B000AF07F5AC74A4F5AA7420600C46DE
:1053F4001046194607F5AC73A3F2551322461A70EA
:1054040007F5AC73A3F5AB7302461A7007F5AC73DA
:10541400A3F257130A461A7007F5AC73A3F5AB73DE
:105424001B78C7F854310023C7F8503156E0D7F839
:10543400502113465B0013449B001A4607F5AC73D6
:10544400A3F5AA731B6813445B68002B40D007F5CF
:10545400AC73A3F257131B78002B16D0D7F8502146
:1054640013465B0013449B001A4607F5AC73A3F57F
:10547400AA731B6813441846FFF792FD0346002BDA
:1054840003D100BF6FF0150333E0D7F85431D8B21D
:10549400D7F8502113465B0013449B001A4607F5C6
:1054A400AC73A3F5AA731B6813441946FFF755FFA1
:1054B400C7F85401D7F8543113F1160F02D1D7F8B5
:1054C400543116E0D7F854310133C7F8543100E0B1
:1054D40000BFD7F850310133C7F8503107F5AC732A
:1054E400A3F255131B78D7F850219A429FDBD7F8C3
:1054F4005431184607F5AE77BD4690BD80B584B0EB
:1055040000AFF8607A603B600B46FB72F97A3B6847
:105514007A68F868FBF7FEFD00BF1037BD4680BD12
:1055240080B582B000AF78600B46FB70FB781946FB
:105534007868FBF70DFE00BF0837BD4680BD80B517
:1055440082B000AF7860396039687868FBF7B6FEDE
:10555400034618460837BD4680BD80B582B000AF0B
:1055640003463960FB71FB7939681846FFF7E7FF9A
:10557400002318460837BD4680BD80B483B000AF11
:105584007860396000BF0C37BD4680BC704780B47A
:1055940083B000AF786000BF0C37BD4680BC704755
:1055A40080B582B000AF78607B681F2B06DC7B6817
:1055B400012202FA03F31846FBF7DCFE00BF0837AA
:1055C400BD4680BD80B582B000AF78607B681F2B7C
:1055D40008DC7B68012202FA03F31846FBF724FF78
:1055E400034600E0002318460837BD4680BD80B559
:1055F40082B000AF78607B681F2B06DC7B680122D9
:1056040002FA03F31846FBF725FF00BF0837BD462F
:1056140080BD80B400AF00BFBD4680BC704780B47D
:1056240083B000AF786039607A683B68B2FBF3F30B
:1056340018460C37BD4680BC704780B487B000AFB5
:10564400786039603B687B617B691B68132B05D9E3
:105654007B691B681C2B01D8012300E00023002B6D
:1056640002D16FF0850313E07B691B6803F180436B
:1056740003F504337A6952683B61FA603B691B683D
:10568400BB603B69F968BA680A431A6000BF00232B
:1056940018461C37BD4680BC704780B487B000AF45
:1056A400786039603B687B617B691B68132B05D983
:1056B4007B691B681C2B01D8012300E00023002B0D
:1056C40002D16FF0850314E07B691B6803F180430A
:1056D40003F504337A6952683B61FA603B691B68DD
:1056E400BB60FB68D9433B69BA680A401A6000BFD3
:1056F400002318461C37BD4680BC704780B58CB06B
:1057040000AFF860B9607A60BB68FB62FB6A1B6833
:105714001846FCF763F9B862BB6A002B01DABB6A6E
:1057240043E0FB6A5B68FF2B01D100233DE0FB6A89
:105734005B68DBB203F1804303F50433FA6A526811
:10574400520B02F00701FA6A5268120A02F01F02B1
:1057540001FA02F2BB617A61BB691B683B617B6938
:10576400D943BB693A690A401A6000BFFB6A5B68A7
:10577400DBB203F1804303F50433FA6A5268120C76
:1057840002F00701FA6A5268120A02F01F0201FAD3
:1057940002F27B623A627B6A1B68FB617B6A396A4C
:1057A400FA690A431A6000BF002318463037BD4621
:1057B40080BD80B584B000AF786039603B68FB6021
:1057C400FB681B68132B05D9FB681B681C2B01D8CD
:1057D400012300E00023012B13D1FB681B6803F1B4
:1057E400804303F50433BB60BB681A68FB685B68DD
:1057F4001A40FB685B689A4201D102230CE0012342
:105804000AE0FB681B681846FCF7E8F80346002B1F
:1058140001D1022300E0012318461037BD4680BDA4
:1058240080B500AFFCF712F80346012B07D0FBF755
:10583400FFFF00BFFCF70AF80346012BFAD1002052
:10584400FCF736F800BFFCF747F80346002BFAD103
:1058540000BF00BF80BD80B500AFFCF73DF8034634
:10586400082B04D1FFF7DCFF0020FCF741F8FCF71C
:1058740095F800F022F8FCF783F800BFFCF79CF8D9
:105884000346012BFAD100BF00BF80BD80B500AF35
:10589400FBF7A0FFFBF7ACFF00BFFBF7B7FF034626
:1058A400012BFAD1FBF7E4FF00BFFBF7EFFF034640
:1058B400012BFAD100BF00BF80BD80B584B000AF1A
:1058C4004FF4E013FB600023BB604FF480337B6034
:1058D400BA68F9687868FCF7A7F900BF1037BD46C5
:1058E40080BD80B500AF4FF08050FCF785F900BF54
:1058F40080BD80B582B000AF7860786801F017FF92
:10590400034618460837BD4680BD80B582B000AF57
:1059140078607868FFF7EDFF034618460837BD4600
:1059240080BD80B584B000AF78600B46FB707B68A7
:105934009B68FB60FB685B68FA7811467868984757
:1059440000BF1037BD4680BD80B582B000AF78601F
:105954000B46FB70FB7819467868FFF7E2FF00BF3F
:105964000837BD4680BD80B483B000AF78600023A3
:1059740018460C37BD4680BC704780B485B000AF74
:10598400F860C7E90023002318461437BD4680BCDD
:10599400704780B483B000AF78607B681B6818469A
:1059A4000C37BD4680BC704780B483B000AF7860CC
:1059B40039607B683A681A6000BF0C37BD4680BC0A
:1059C400704780B483B000AF786039607B683A6810
:1059D4001A6000BF0C37BD4680BC704780B483B0EA
:1059E40000AF786039607B683A685A6000BF0C3752
:1059F400BD4680BC704780B483B000AF78607B68DC
:105A04001B6818460C37BD4680BC704780B483B011
:105A140000AF78607B685B6818460C37BD4680BC75
:105A2400704780B582B000AF78607868FFF7E3FF15
:105A34000346002B0CBF01230023DBB218460837B2
:105A4400BD4680BD80B582B000AF78607868FFF74E
:105A5400A0FF034618460837BD4680BD80B582B016
:105A640000AF78607B68002B04D07868FFF7EAFF0A
:105A7400034600E0002318460837BD4680BD80B5C4
:105A840082B000AF786039607868FFF7B4FF0346EE
:105A940019463868FFF788FF39687868FFF791FF7F
:105AA4007868FFF7B3FF0346002B07D17868FFF748
:105AB400A2FF034619467868FFF790FF0837BD46F2
:105AC40080BD80B584B000AFF860B9607A60BB680F
